{
  "_format": "hh-sol-artifact-1",
  "contractName": "RoryGeddesRegistry",
  "sourceName": "contracts/RoryGeddesRegistry.sol",
  "abi": [
    {
      "inputs": [],
      "stateMutability": "nonpayable",
      "type": "constructor"
    },
    {
      "inputs": [
        {
          "internalType": "address",
          "name": "sender",
          "type": "address"
        },
        {
          "internalType": "uint256",
          "name": "tokenId",
          "type": "uint256"
        },
        {
          "internalType": "address",
          "name": "owner",
          "type": "address"
        }
      ],
      "name": "ERC721IncorrectOwner",
      "type": "error"
    },
    {
      "inputs": [
        {
          "internalType": "address",
          "name": "operator",
          "type": "address"
        },
        {
          "internalType": "uint256",
          "name": "tokenId",
          "type": "uint256"
        }
      ],
      "name": "ERC721InsufficientApproval",
      "type": "error"
    },
    {
      "inputs": [
        {
          "internalType": "address",
          "name": "approver",
          "type": "address"
        }
      ],
      "name": "ERC721InvalidApprover",
      "type": "error"
    },
    {
      "inputs": [
        {
          "internalType": "address",
          "name": "operator",
          "type": "address"
        }
      ],
      "name": "ERC721InvalidOperator",
      "type": "error"
    },
    {
      "inputs": [
        {
          "internalType": "address",
          "name": "owner",
          "type": "address"
        }
      ],
      "name": "ERC721InvalidOwner",
      "type": "error"
    },
    {
      "inputs": [
        {
          "internalType": "address",
          "name": "receiver",
          "type": "address"
        }
      ],
      "name": "ERC721InvalidReceiver",
      "type": "error"
    },
    {
      "inputs": [
        {
          "internalType": "address",
          "name": "sender",
          "type": "address"
        }
      ],
      "name": "ERC721InvalidSender",
      "type": "error"
    },
    {
      "inputs": [
        {
          "internalType": "uint256",
          "name": "tokenId",
          "type": "uint256"
        }
      ],
      "name": "ERC721NonexistentToken",
      "type": "error"
    },
    {
      "inputs": [
        {
          "internalType": "address",
          "name": "owner",
          "type": "address"
        }
      ],
      "name": "OwnableInvalidOwner",
      "type": "error"
    },
    {
      "inputs": [
        {
          "internalType": "address",
          "name": "account",
          "type": "address"
        }
      ],
      "name": "OwnableUnauthorizedAccount",
      "type": "error"
    },
    {
      "anonymous": false,
      "inputs": [
        {
          "indexed": true,
          "internalType": "address",
          "name": "owner",
          "type": "address"
        },
        {
          "indexed": true,
          "internalType": "address",
          "name": "approved",
          "type": "address"
        },
        {
          "indexed": true,
          "internalType": "uint256",
          "name": "tokenId",
          "type": "uint256"
        }
      ],
      "name": "Approval",
      "type": "event"
    },
    {
      "anonymous": false,
      "inputs": [
        {
          "indexed": true,
          "internalType": "address",
          "name": "owner",
          "type": "address"
        },
        {
          "indexed": true,
          "internalType": "address",
          "name": "operator",
          "type": "address"
        },
        {
          "indexed": false,
          "internalType": "bool",
          "name": "approved",
          "type": "bool"
        }
      ],
      "name": "ApprovalForAll",
      "type": "event"
    },
    {
      "anonymous": false,
      "inputs": [
        {
          "indexed": true,
          "internalType": "string",
          "name": "name",
          "type": "string"
        },
        {
          "indexed": true,
          "internalType": "address",
          "name": "owner",
          "type": "address"
        }
      ],
      "name": "DomainRegistered",
      "type": "event"
    },
    {
      "anonymous": false,
      "inputs": [
        {
          "indexed": true,
          "internalType": "string",
          "name": "name",
          "type": "string"
        },
        {
          "indexed": true,
          "internalType": "address",
          "name": "resolution",
          "type": "address"
        }
      ],
      "name": "DomainResolutionUpdated",
      "type": "event"
    },
    {
      "anonymous": false,
      "inputs": [
        {
          "indexed": true,
          "internalType": "address",
          "name": "previousOwner",
          "type": "address"
        },
        {
          "indexed": true,
          "internalType": "address",
          "name": "newOwner",
          "type": "address"
        }
      ],
      "name": "OwnershipTransferred",
      "type": "event"
    },
    {
      "anonymous": false,
      "inputs": [
        {
          "indexed": true,
          "internalType": "address",
          "name": "from",
          "type": "address"
        },
        {
          "indexed": true,
          "internalType": "address",
          "name": "to",
          "type": "address"
        },
        {
          "indexed": true,
          "internalType": "uint256",
          "name": "tokenId",
          "type": "uint256"
        }
      ],
      "name": "Transfer",
      "type": "event"
    },
    {
      "inputs": [],
      "name": "DOMAIN_PRICE",
      "outputs": [
        {
          "internalType": "uint256",
          "name": "",
          "type": "uint256"
        }
      ],
      "stateMutability": "view",
      "type": "function"
    },
    {
      "inputs": [
        {
          "internalType": "address",
          "name": "to",
          "type": "address"
        },
        {
          "internalType": "uint256",
          "name": "tokenId",
          "type": "uint256"
        }
      ],
      "name": "approve",
      "outputs": [],
      "stateMutability": "nonpayable",
      "type": "function"
    },
    {
      "inputs": [
        {
          "internalType": "address",
          "name": "owner",
          "type": "address"
        }
      ],
      "name": "balanceOf",
      "outputs": [
        {
          "internalType": "uint256",
          "name": "",
          "type": "uint256"
        }
      ],
      "stateMutability": "view",
      "type": "function"
    },
    {
      "inputs": [
        {
          "internalType": "uint256",
          "name": "tokenId",
          "type": "uint256"
        }
      ],
      "name": "getApproved",
      "outputs": [
        {
          "internalType": "address",
          "name": "",
          "type": "address"
        }
      ],
      "stateMutability": "view",
      "type": "function"
    },
    {
      "inputs": [
        {
          "internalType": "string",
          "name": "name",
          "type": "string"
        }
      ],
      "name": "getDomainOwner",
      "outputs": [
        {
          "internalType": "address",
          "name": "",
          "type": "address"
        }
      ],
      "stateMutability": "view",
      "type": "function"
    },
    {
      "inputs": [
        {
          "internalType": "string",
          "name": "name",
          "type": "string"
        }
      ],
      "name": "getDomainResolution",
      "outputs": [
        {
          "internalType": "address",
          "name": "",
          "type": "address"
        }
      ],
      "stateMutability": "view",
      "type": "function"
    },
    {
      "inputs": [
        {
          "internalType": "address",
          "name": "owner",
          "type": "address"
        },
        {
          "internalType": "address",
          "name": "operator",
          "type": "address"
        }
      ],
      "name": "isApprovedForAll",
      "outputs": [
        {
          "internalType": "bool",
          "name": "",
          "type": "bool"
        }
      ],
      "stateMutability": "view",
      "type": "function"
    },
    {
      "inputs": [],
      "name": "name",
      "outputs": [
        {
          "internalType": "string",
          "name": "",
          "type": "string"
        }
      ],
      "stateMutability": "view",
      "type": "function"
    },
    {
      "inputs": [],
      "name": "owner",
      "outputs": [
        {
          "internalType": "address",
          "name": "",
          "type": "address"
        }
      ],
      "stateMutability": "view",
      "type": "function"
    },
    {
      "inputs": [
        {
          "internalType": "uint256",
          "name": "tokenId",
          "type": "uint256"
        }
      ],
      "name": "ownerOf",
      "outputs": [
        {
          "internalType": "address",
          "name": "",
          "type": "address"
        }
      ],
      "stateMutability": "view",
      "type": "function"
    },
    {
      "inputs": [
        {
          "internalType": "string",
          "name": "name",
          "type": "string"
        }
      ],
      "name": "registerDomain",
      "outputs": [],
      "stateMutability": "payable",
      "type": "function"
    },
    {
      "inputs": [],
      "name": "renounceOwnership",
      "outputs": [],
      "stateMutability": "nonpayable",
      "type": "function"
    },
    {
      "inputs": [
        {
          "internalType": "address",
          "name": "from",
          "type": "address"
        },
        {
          "internalType": "address",
          "name": "to",
          "type": "address"
        },
        {
          "internalType": "uint256",
          "name": "tokenId",
          "type": "uint256"
        }
      ],
      "name": "safeTransferFrom",
      "outputs": [],
      "stateMutability": "nonpayable",
      "type": "function"
    },
    {
      "inputs": [
        {
          "internalType": "address",
          "name": "from",
          "type": "address"
        },
        {
          "internalType": "address",
          "name": "to",
          "type": "address"
        },
        {
          "internalType": "uint256",
          "name": "tokenId",
          "type": "uint256"
        },
        {
          "internalType": "bytes",
          "name": "data",
          "type": "bytes"
        }
      ],
      "name": "safeTransferFrom",
      "outputs": [],
      "stateMutability": "nonpayable",
      "type": "function"
    },
    {
      "inputs": [
        {
          "internalType": "address",
          "name": "operator",
          "type": "address"
        },
        {
          "internalType": "bool",
          "name": "approved",
          "type": "bool"
        }
      ],
      "name": "setApprovalForAll",
      "outputs": [],
      "stateMutability": "nonpayable",
      "type": "function"
    },
    {
      "inputs": [
        {
          "internalType": "string",
          "name": "name",
          "type": "string"
        },
        {
          "internalType": "address",
          "name": "resolution",
          "type": "address"
        }
      ],
      "name": "setDomainResolution",
      "outputs": [],
      "stateMutability": "nonpayable",
      "type": "function"
    },
    {
      "inputs": [
        {
          "internalType": "bytes4",
          "name": "interfaceId",
          "type": "bytes4"
        }
      ],
      "name": "supportsInterface",
      "outputs": [
        {
          "internalType": "bool",
          "name": "",
          "type": "bool"
        }
      ],
      "stateMutability": "view",
      "type": "function"
    },
    {
      "inputs": [],
      "name": "symbol",
      "outputs": [
        {
          "internalType": "string",
          "name": "",
          "type": "string"
        }
      ],
      "stateMutability": "view",
      "type": "function"
    },
    {
      "inputs": [
        {
          "internalType": "uint256",
          "name": "tokenId",
          "type": "uint256"
        }
      ],
      "name": "tokenURI",
      "outputs": [
        {
          "internalType": "string",
          "name": "",
          "type": "string"
        }
      ],
      "stateMutability": "view",
      "type": "function"
    },
    {
      "inputs": [
        {
          "internalType": "address",
          "name": "from",
          "type": "address"
        },
        {
          "internalType": "address",
          "name": "to",
          "type": "address"
        },
        {
          "internalType": "uint256",
          "name": "tokenId",
          "type": "uint256"
        }
      ],
      "name": "transferFrom",
      "outputs": [],
      "stateMutability": "nonpayable",
      "type": "function"
    },
    {
      "inputs": [
        {
          "internalType": "address",
          "name": "newOwner",
          "type": "address"
        }
      ],
      "name": "transferOwnership",
      "outputs": [],
      "stateMutability": "nonpayable",
      "type": "function"
    },
    {
      "inputs": [],
      "name": "withdraw",
      "outputs": [],
      "stateMutability": "nonpayable",
      "type": "function"
    }
  ],
  "bytecode": "0x60806040523480156200001157600080fd5b50336040518060400160405280601181526020017f526f727947656464657320446f6d61696e0000000000000000000000000000008152506040518060400160405280600381526020017f5247440000000000000000000000000000000000000000000000000000000000815250816000908162000090919062000472565b508060019081620000a2919062000472565b505050600073ffffffffffffffffffffffffffffffffffffffff168173ffffffffffffffffffffffffffffffffffffffff16036200011a5760006040517f1e4fbdf70000000000000000000000000000000000000000000000000000000081526004016200011191906200059e565b60405180910390fd5b6200012b816200013260201b60201c565b50620005bb565b6000600660009054906101000a900473ffffffffffffffffffffffffffffffffffffffff16905081600660006101000a81548173ffffffffffffffffffffffffffffffffffffffff021916908373ffffffffffffffffffffffffffffffffffffffff1602179055508173ffffffffffffffffffffffffffffffffffffffff168173ffffffffffffffffffffffffffffffffffffffff167f8be0079c531659141344cd1fd0a4f28419497f9722a3daafe3b4186f6b6457e060405160405180910390a35050565b600081519050919050565b7f4e487b7100000000000000000000000000000000000000000000000000000000600052604160045260246000fd5b7f4e487b7100000000000000000000000000000000000000000000000000000000600052602260045260246000fd5b600060028204905060018216806200027a57607f821691505b60208210810362000290576200028f62000232565b5b50919050565b60008190508160005260206000209050919050565b60006020601f8301049050919050565b600082821b905092915050565b600060088302620002fa7fffffffffffffffffffffffffffffffffffffffffffffffffffffffffffffffff82620002bb565b620003068683620002bb565b95508019841693508086168417925050509392505050565b6000819050919050565b6000819050919050565b6000620003536200034d62000347846200031e565b62000328565b6200031e565b9050919050565b6000819050919050565b6200036f8362000332565b620003876200037e826200035a565b848454620002c8565b825550505050565b600090565b6200039e6200038f565b620003ab81848462000364565b505050565b5b81811015620003d357620003c760008262000394565b600181019050620003b1565b5050565b601f8211156200042257620003ec8162000296565b620003f784620002ab565b8101602085101562000407578190505b6200041f6200041685620002ab565b830182620003b0565b50505b505050565b600082821c905092915050565b6000620004476000198460080262000427565b1980831691505092915050565b600062000462838362000434565b9150826002028217905092915050565b6200047d82620001f8565b67ffffffffffffffff81111562000499576200049862000203565b5b620004a5825462000261565b620004b2828285620003d7565b600060209050601f831160018114620004ea5760008415620004d5578287015190505b620004e1858262000454565b86555062000551565b601f198416620004fa8662000296565b60005b828110156200052457848901518255600182019150602085019450602081019050620004fd565b8683101562000544578489015162000540601f89168262000434565b8355505b6001600288020188555050505b505050505050565b600073ffffffffffffffffffffffffffffffffffffffff82169050919050565b6000620005868262000559565b9050919050565b620005988162000579565b82525050565b6000602082019050620005b560008301846200058d565b92915050565b61287080620005cb6000396000f3fe6080604052600436106101355760003560e01c806370a08231116100ab578063a5cad08a1161006f578063a5cad08a14610424578063a7edf77b14610440578063b88d4fde1461046b578063c87b56dd14610494578063e985e9c5146104d1578063f2fde38b1461050e57610135565b806370a0823114610351578063715018a61461038e5780638da5cb5b146103a557806395d89b41146103d0578063a22cb465146103fb57610135565b806325970115116100fd57806325970115146102315780633ccfd60b1461026e57806342842e0e1461028557806362f7bc35146102ae5780636352211e146102eb5780636c17d80d1461032857610135565b806301ffc9a71461013a57806306fdde0314610177578063081812fc146101a2578063095ea7b3146101df57806323b872dd14610208575b600080fd5b34801561014657600080fd5b50610161600480360381019061015c9190611e19565b610537565b60405161016e9190611e61565b60405180910390f35b34801561018357600080fd5b5061018c610619565b6040516101999190611f0c565b60405180910390f35b3480156101ae57600080fd5b506101c960048036038101906101c49190611f64565b6106ab565b6040516101d69190611fd2565b60405180910390f35b3480156101eb57600080fd5b5061020660048036038101906102019190612019565b6106c7565b005b34801561021457600080fd5b5061022f600480360381019061022a9190612059565b6106dd565b005b34801561023d57600080fd5b50610258600480360381019061025391906121e1565b6107df565b6040516102659190611fd2565b60405180910390f35b34801561027a57600080fd5b50610283610827565b005b34801561029157600080fd5b506102ac60048036038101906102a79190612059565b610885565b005b3480156102ba57600080fd5b506102d560048036038101906102d091906121e1565b6108a5565b6040516102e29190611fd2565b60405180910390f35b3480156102f757600080fd5b50610312600480360381019061030d9190611f64565b6108ed565b60405161031f9190611fd2565b60405180910390f35b34801561033457600080fd5b5061034f600480360381019061034a919061222a565b6108ff565b005b34801561035d57600080fd5b5061037860048036038101906103739190612286565b610a65565b60405161038591906122c2565b60405180910390f35b34801561039a57600080fd5b506103a3610b1f565b005b3480156103b157600080fd5b506103ba610b33565b6040516103c79190611fd2565b60405180910390f35b3480156103dc57600080fd5b506103e5610b5d565b6040516103f29190611f0c565b60405180910390f35b34801561040757600080fd5b50610422600480360381019061041d9190612309565b610bef565b005b61043e600480360381019061043991906121e1565b610c05565b005b34801561044c57600080fd5b50610455610e6b565b60405161046291906122c2565b60405180910390f35b34801561047757600080fd5b50610492600480360381019061048d91906123ea565b610e76565b005b3480156104a057600080fd5b506104bb60048036038101906104b69190611f64565b610e9b565b6040516104c89190611f0c565b60405180910390f35b3480156104dd57600080fd5b506104f860048036038101906104f3919061246d565b610f04565b6040516105059190611e61565b60405180910390f35b34801561051a57600080fd5b5061053560048036038101906105309190612286565b610f98565b005b60007f80ac58cd000000000000000000000000000000000000000000000000000000007bffffffffffffffffffffffffffffffffffffffffffffffffffffffff1916827bffffffffffffffffffffffffffffffffffffffffffffffffffffffff1916148061060257507f5b5e139f000000000000000000000000000000000000000000000000000000007bffffffffffffffffffffffffffffffffffffffffffffffffffffffff1916827bffffffffffffffffffffffffffffffffffffffffffffffffffffffff1916145b8061061257506106118261101e565b5b9050919050565b606060008054610628906124dc565b80601f0160208091040260200160405190810160405280929190818152602001828054610654906124dc565b80156106a15780601f10610676576101008083540402835291602001916106a1565b820191906000526020600020905b81548152906001019060200180831161068457829003601f168201915b5050505050905090565b60006106b682611088565b506106c082611110565b9050919050565b6106d982826106d461114d565b611155565b5050565b600073ffffffffffffffffffffffffffffffffffffffff168273ffffffffffffffffffffffffffffffffffffffff160361074f5760006040517f64a0ae920000000000000000000000000000000000000000000000000000000081526004016107469190611fd2565b60405180910390fd5b6000610763838361075e61114d565b611167565b90508373ffffffffffffffffffffffffffffffffffffffff168173ffffffffffffffffffffffffffffffffffffffff16146107d9578382826040517f64283d7b0000000000000000000000000000000000000000000000000000000081526004016107d09392919061250d565b60405180910390fd5b50505050565b60006007826040516107f19190612580565b908152602001604051809103902060009054906101000a900473ffffffffffffffffffffffffffffffffffffffff169050919050565b61082f611381565b600047905061083c610b33565b73ffffffffffffffffffffffffffffffffffffffff166108fc829081150290604051600060405180830381858888f19350505050158015610881573d6000803e3d6000fd5b5050565b6108a083838360405180602001604052806000815250610e76565b505050565b60006008826040516108b79190612580565b908152602001604051809103902060009054906101000a900473ffffffffffffffffffffffffffffffffffffffff169050919050565b60006108f882611088565b9050919050565b3373ffffffffffffffffffffffffffffffffffffffff166007836040516109269190612580565b908152602001604051809103902060009054906101000a900473ffffffffffffffffffffffffffffffffffffffff1673ffffffffffffffffffffffffffffffffffffffff16146109ab576040517f08c379a00000000000000000000000000000000000000000000000000000000081526004016109a2906125e3565b60405180910390fd5b806008836040516109bc9190612580565b908152602001604051809103902060006101000a81548173ffffffffffffffffffffffffffffffffffffffff021916908373ffffffffffffffffffffffffffffffffffffffff1602179055508073ffffffffffffffffffffffffffffffffffffffff1682604051610a2d9190612580565b60405180910390207f85a4760536834d21abe5275559208458942baa4c217b917e3fec4ead319e52f260405160405180910390a35050565b60008073ffffffffffffffffffffffffffffffffffffffff168273ffffffffffffffffffffffffffffffffffffffff1603610ad85760006040517f89c62b64000000000000000000000000000000000000000000000000000000008152600401610acf9190611fd2565b60405180910390fd5b600360008373ffffffffffffffffffffffffffffffffffffffff1673ffffffffffffffffffffffffffffffffffffffff168152602001908152602001600020549050919050565b610b27611381565b610b316000611408565b565b6000600660009054906101000a900473ffffffffffffffffffffffffffffffffffffffff16905090565b606060018054610b6c906124dc565b80601f0160208091040260200160405190810160405280929190818152602001828054610b98906124dc565b8015610be55780601f10610bba57610100808354040283529160200191610be5565b820191906000526020600020905b815481529060010190602001808311610bc857829003601f168201915b5050505050905090565b610c01610bfa61114d565b83836114ce565b5050565b662386f26fc10000341015610c4f576040517f08c379a0000000000000000000000000000000000000000000000000000000008152600401610c469061264f565b60405180910390fd5b600073ffffffffffffffffffffffffffffffffffffffff16600782604051610c779190612580565b908152602001604051809103902060009054906101000a900473ffffffffffffffffffffffffffffffffffffffff1673ffffffffffffffffffffffffffffffffffffffff1614610cfc576040517f08c379a0000000000000000000000000000000000000000000000000000000008152600401610cf3906126bb565b60405180910390fd5b33600782604051610d0d9190612580565b908152602001604051809103902060006101000a81548173ffffffffffffffffffffffffffffffffffffffff021916908373ffffffffffffffffffffffffffffffffffffffff16021790555033600882604051610d6a9190612580565b908152602001604051809103902060006101000a81548173ffffffffffffffffffffffffffffffffffffffff021916908373ffffffffffffffffffffffffffffffffffffffff1602179055503373ffffffffffffffffffffffffffffffffffffffff1681604051610ddb9190612580565b60405180910390207f70f2ff07e8136617cdfb0433423063c9dd697c507560d7860cce09fa86874a1260405160405180910390a33373ffffffffffffffffffffffffffffffffffffffff1681604051610e349190612580565b60405180910390207f85a4760536834d21abe5275559208458942baa4c217b917e3fec4ead319e52f260405160405180910390a350565b662386f26fc1000081565b610e818484846106dd565b610e95610e8c61114d565b8585858561163d565b50505050565b6060610ea682611088565b506000610eb16117ee565b90506000815111610ed15760405180602001604052806000815250610efc565b80610edb84611805565b604051602001610eec9291906126db565b6040516020818303038152906040525b915050919050565b6000600560008473ffffffffffffffffffffffffffffffffffffffff1673ffffffffffffffffffffffffffffffffffffffff16815260200190815260200160002060008373ffffffffffffffffffffffffffffffffffffffff1673ffffffffffffffffffffffffffffffffffffffff16815260200190815260200160002060009054906101000a900460ff16905092915050565b610fa0611381565b600073ffffffffffffffffffffffffffffffffffffffff168173ffffffffffffffffffffffffffffffffffffffff16036110125760006040517f1e4fbdf70000000000000000000000000000000000000000000000000000000081526004016110099190611fd2565b60405180910390fd5b61101b81611408565b50565b60007f01ffc9a7000000000000000000000000000000000000000000000000000000007bffffffffffffffffffffffffffffffffffffffffffffffffffffffff1916827bffffffffffffffffffffffffffffffffffffffffffffffffffffffff1916149050919050565b600080611094836118d3565b9050600073ffffffffffffffffffffffffffffffffffffffff168173ffffffffffffffffffffffffffffffffffffffff160361110757826040517f7e2732890000000000000000000000000000000000000000000000000000000081526004016110fe91906122c2565b60405180910390fd5b80915050919050565b60006004600083815260200190815260200160002060009054906101000a900473ffffffffffffffffffffffffffffffffffffffff169050919050565b600033905090565b6111628383836001611910565b505050565b600080611173846118d3565b9050600073ffffffffffffffffffffffffffffffffffffffff168373ffffffffffffffffffffffffffffffffffffffff16146111b5576111b4818486611ad5565b5b600073ffffffffffffffffffffffffffffffffffffffff168173ffffffffffffffffffffffffffffffffffffffff1614611246576111f7600085600080611910565b6001600360008373ffffffffffffffffffffffffffffffffffffffff1673ffffffffffffffffffffffffffffffffffffffff168152602001908152602001600020600082825403925050819055505b600073ffffffffffffffffffffffffffffffffffffffff168573ffffffffffffffffffffffffffffffffffffffff16146112c9576001600360008773ffffffffffffffffffffffffffffffffffffffff1673ffffffffffffffffffffffffffffffffffffffff168152602001908152602001600020600082825401925050819055505b846002600086815260200190815260200160002060006101000a81548173ffffffffffffffffffffffffffffffffffffffff021916908373ffffffffffffffffffffffffffffffffffffffff160217905550838573ffffffffffffffffffffffffffffffffffffffff168273ffffffffffffffffffffffffffffffffffffffff167fddf252ad1be2c89b69c2b068fc378daa952ba7f163c4a11628f55a4df523b3ef60405160405180910390a4809150509392505050565b61138961114d565b73ffffffffffffffffffffffffffffffffffffffff166113a7610b33565b73ffffffffffffffffffffffffffffffffffffffff1614611406576113ca61114d565b6040517f118cdaa70000000000000000000000000000000000000000000000000000000081526004016113fd9190611fd2565b60405180910390fd5b565b6000600660009054906101000a900473ffffffffffffffffffffffffffffffffffffffff16905081600660006101000a81548173ffffffffffffffffffffffffffffffffffffffff021916908373ffffffffffffffffffffffffffffffffffffffff1602179055508173ffffffffffffffffffffffffffffffffffffffff168173ffffffffffffffffffffffffffffffffffffffff167f8be0079c531659141344cd1fd0a4f28419497f9722a3daafe3b4186f6b6457e060405160405180910390a35050565b600073ffffffffffffffffffffffffffffffffffffffff168273ffffffffffffffffffffffffffffffffffffffff160361153f57816040517f5b08ba180000000000000000000000000000000000000000000000000000000081526004016115369190611fd2565b60405180910390fd5b80600560008573ffffffffffffffffffffffffffffffffffffffff1673ffffffffffffffffffffffffffffffffffffffff16815260200190815260200160002060008473ffffffffffffffffffffffffffffffffffffffff1673ffffffffffffffffffffffffffffffffffffffff16815260200190815260200160002060006101000a81548160ff0219169083151502179055508173ffffffffffffffffffffffffffffffffffffffff168373ffffffffffffffffffffffffffffffffffffffff167f17307eab39ab6107e8899845ad3d59bd9653f200f220920489ca2b5937696c31836040516116309190611e61565b60405180910390a3505050565b60008373ffffffffffffffffffffffffffffffffffffffff163b11156117e7578273ffffffffffffffffffffffffffffffffffffffff1663150b7a02868685856040518563ffffffff1660e01b815260040161169c9493929190612754565b6020604051808303816000875af19250505080156116d857506040513d601f19601f820116820180604052508101906116d591906127b5565b60015b61175c573d8060008114611708576040519150601f19603f3d011682016040523d82523d6000602084013e61170d565b606091505b50600081510361175457836040517f64a0ae9200000000000000000000000000000000000000000000000000000000815260040161174b9190611fd2565b60405180910390fd5b805181602001fd5b63150b7a0260e01b7bffffffffffffffffffffffffffffffffffffffffffffffffffffffff1916817bffffffffffffffffffffffffffffffffffffffffffffffffffffffff1916146117e557836040517f64a0ae920000000000000000000000000000000000000000000000000000000081526004016117dc9190611fd2565b60405180910390fd5b505b5050505050565b606060405180602001604052806000815250905090565b60606000600161181484611b99565b01905060008167ffffffffffffffff811115611833576118326120b6565b5b6040519080825280601f01601f1916602001820160405280156118655781602001600182028036833780820191505090505b509050600082602001820190505b6001156118c8578080600190039150507f3031323334353637383961626364656600000000000000000000000000000000600a86061a8153600a85816118bc576118bb6127e2565b5b04945060008503611873575b819350505050919050565b60006002600083815260200190815260200160002060009054906101000a900473ffffffffffffffffffffffffffffffffffffffff169050919050565b80806119495750600073ffffffffffffffffffffffffffffffffffffffff168273ffffffffffffffffffffffffffffffffffffffff1614155b15611a7d57600061195984611088565b9050600073ffffffffffffffffffffffffffffffffffffffff168373ffffffffffffffffffffffffffffffffffffffff16141580156119c457508273ffffffffffffffffffffffffffffffffffffffff168173ffffffffffffffffffffffffffffffffffffffff1614155b80156119d757506119d58184610f04565b155b15611a1957826040517fa9fbf51f000000000000000000000000000000000000000000000000000000008152600401611a109190611fd2565b60405180910390fd5b8115611a7b57838573ffffffffffffffffffffffffffffffffffffffff168273ffffffffffffffffffffffffffffffffffffffff167f8c5be1e5ebec7d5bd14f71427d1e84f3dd0314c0f7b2291e5b200ac8c7c3b92560405160405180910390a45b505b836004600085815260200190815260200160002060006101000a81548173ffffffffffffffffffffffffffffffffffffffff021916908373ffffffffffffffffffffffffffffffffffffffff16021790555050505050565b611ae0838383611cec565b611b9457600073ffffffffffffffffffffffffffffffffffffffff168373ffffffffffffffffffffffffffffffffffffffff1603611b5557806040517f7e273289000000000000000000000000000000000000000000000000000000008152600401611b4c91906122c2565b60405180910390fd5b81816040517f177e802f000000000000000000000000000000000000000000000000000000008152600401611b8b929190612811565b60405180910390fd5b505050565b600080600090507a184f03e93ff9f4daa797ed6e38ed64bf6a1f0100000000000000008310611bf7577a184f03e93ff9f4daa797ed6e38ed64bf6a1f0100000000000000008381611bed57611bec6127e2565b5b0492506040810190505b6d04ee2d6d415b85acef81000000008310611c34576d04ee2d6d415b85acef81000000008381611c2a57611c296127e2565b5b0492506020810190505b662386f26fc100008310611c6357662386f26fc100008381611c5957611c586127e2565b5b0492506010810190505b6305f5e1008310611c8c576305f5e1008381611c8257611c816127e2565b5b0492506008810190505b6127108310611cb1576127108381611ca757611ca66127e2565b5b0492506004810190505b60648310611cd45760648381611cca57611cc96127e2565b5b0492506002810190505b600a8310611ce3576001810190505b80915050919050565b60008073ffffffffffffffffffffffffffffffffffffffff168373ffffffffffffffffffffffffffffffffffffffff1614158015611da457508273ffffffffffffffffffffffffffffffffffffffff168473ffffffffffffffffffffffffffffffffffffffff161480611d655750611d648484610f04565b5b80611da357508273ffffffffffffffffffffffffffffffffffffffff16611d8b83611110565b73ffffffffffffffffffffffffffffffffffffffff16145b5b90509392505050565b6000604051905090565b600080fd5b600080fd5b60007fffffffff0000000000000000000000000000000000000000000000000000000082169050919050565b611df681611dc1565b8114611e0157600080fd5b50565b600081359050611e1381611ded565b92915050565b600060208284031215611e2f57611e2e611db7565b5b6000611e3d84828501611e04565b91505092915050565b60008115159050919050565b611e5b81611e46565b82525050565b6000602082019050611e766000830184611e52565b92915050565b600081519050919050565b600082825260208201905092915050565b60005b83811015611eb6578082015181840152602081019050611e9b565b60008484015250505050565b6000601f19601f8301169050919050565b6000611ede82611e7c565b611ee88185611e87565b9350611ef8818560208601611e98565b611f0181611ec2565b840191505092915050565b60006020820190508181036000830152611f268184611ed3565b905092915050565b6000819050919050565b611f4181611f2e565b8114611f4c57600080fd5b50565b600081359050611f5e81611f38565b92915050565b600060208284031215611f7a57611f79611db7565b5b6000611f8884828501611f4f565b91505092915050565b600073ffffffffffffffffffffffffffffffffffffffff82169050919050565b6000611fbc82611f91565b9050919050565b611fcc81611fb1565b82525050565b6000602082019050611fe76000830184611fc3565b92915050565b611ff681611fb1565b811461200157600080fd5b50565b60008135905061201381611fed565b92915050565b600080604083850312156120305761202f611db7565b5b600061203e85828601612004565b925050602061204f85828601611f4f565b9150509250929050565b60008060006060848603121561207257612071611db7565b5b600061208086828701612004565b935050602061209186828701612004565b92505060406120a286828701611f4f565b9150509250925092565b600080fd5b600080fd5b7f4e487b7100000000000000000000000000000000000000000000000000000000600052604160045260246000fd5b6120ee82611ec2565b810181811067ffffffffffffffff8211171561210d5761210c6120b6565b5b80604052505050565b6000612120611dad565b905061212c82826120e5565b919050565b600067ffffffffffffffff82111561214c5761214b6120b6565b5b61215582611ec2565b9050602081019050919050565b82818337600083830152505050565b600061218461217f84612131565b612116565b9050828152602081018484840111156121a05761219f6120b1565b5b6121ab848285612162565b509392505050565b600082601f8301126121c8576121c76120ac565b5b81356121d8848260208601612171565b91505092915050565b6000602082840312156121f7576121f6611db7565b5b600082013567ffffffffffffffff81111561221557612214611dbc565b5b612221848285016121b3565b91505092915050565b6000806040838503121561224157612240611db7565b5b600083013567ffffffffffffffff81111561225f5761225e611dbc565b5b61226b858286016121b3565b925050602061227c85828601612004565b9150509250929050565b60006020828403121561229c5761229b611db7565b5b60006122aa84828501612004565b91505092915050565b6122bc81611f2e565b82525050565b60006020820190506122d760008301846122b3565b92915050565b6122e681611e46565b81146122f157600080fd5b50565b600081359050612303816122dd565b92915050565b600080604083850312156123205761231f611db7565b5b600061232e85828601612004565b925050602061233f858286016122f4565b9150509250929050565b600067ffffffffffffffff821115612364576123636120b6565b5b61236d82611ec2565b9050602081019050919050565b600061238d61238884612349565b612116565b9050828152602081018484840111156123a9576123a86120b1565b5b6123b4848285612162565b509392505050565b600082601f8301126123d1576123d06120ac565b5b81356123e184826020860161237a565b91505092915050565b6000806000806080858703121561240457612403611db7565b5b600061241287828801612004565b945050602061242387828801612004565b935050604061243487828801611f4f565b925050606085013567ffffffffffffffff81111561245557612454611dbc565b5b612461878288016123bc565b91505092959194509250565b6000806040838503121561248457612483611db7565b5b600061249285828601612004565b92505060206124a385828601612004565b9150509250929050565b7f4e487b7100000000000000000000000000000000000000000000000000000000600052602260045260246000fd5b600060028204905060018216806124f457607f821691505b602082108103612507576125066124ad565b5b50919050565b60006060820190506125226000830186611fc3565b61252f60208301856122b3565b61253c6040830184611fc3565b949350505050565b600081905092915050565b600061255a82611e7c565b6125648185612544565b9350612574818560208601611e98565b80840191505092915050565b600061258c828461254f565b915081905092915050565b7f4e6f7420646f6d61696e206f776e657200000000000000000000000000000000600082015250565b60006125cd601083611e87565b91506125d882612597565b602082019050919050565b600060208201905081810360008301526125fc816125c0565b9050919050565b7f496e73756666696369656e74207061796d656e74000000000000000000000000600082015250565b6000612639601483611e87565b915061264482612603565b602082019050919050565b600060208201905081810360008301526126688161262c565b9050919050565b7f446f6d61696e20616c7265616479207265676973746572656400000000000000600082015250565b60006126a5601983611e87565b91506126b08261266f565b602082019050919050565b600060208201905081810360008301526126d481612698565b9050919050565b60006126e7828561254f565b91506126f3828461254f565b91508190509392505050565b600081519050919050565b600082825260208201905092915050565b6000612726826126ff565b612730818561270a565b9350612740818560208601611e98565b61274981611ec2565b840191505092915050565b60006080820190506127696000830187611fc3565b6127766020830186611fc3565b61278360408301856122b3565b8181036060830152612795818461271b565b905095945050505050565b6000815190506127af81611ded565b92915050565b6000602082840312156127cb576127ca611db7565b5b60006127d9848285016127a0565b91505092915050565b7f4e487b7100000000000000000000000000000000000000000000000000000000600052601260045260246000fd5b60006040820190506128266000830185611fc3565b61283360208301846122b3565b939250505056fea26469706673582212203ad3ff5672a2fea3f64b1b5ad49f9767ca0f1fb304f16818cee10867813a3f8464736f6c63430008140033",
  "linkReferences": {},
  "deployedLinkReferences": {}
}